{
  "_format": "hh-sol-artifact-1",
  "contractName": "Voting",
  "sourceName": "contracts/Voting.sol",
  "abi": [
    {
      "inputs": [
        {
          "internalType": "string[]",
          "name": "_candidateNames",
          "type": "string[]"
        },
        {
          "internalType": "uint256",
          "name": "_durationInMinutes",
          "type": "uint256"
        }
      ],
      "stateMutability": "nonpayable",
      "type": "constructor"
    },
    {
      "inputs": [
        {
          "internalType": "string",
          "name": "_name",
          "type": "string"
        }
      ],
      "name": "addCandidate",
      "outputs": [],
      "stateMutability": "nonpayable",
      "type": "function"
    },
    {
      "inputs": [
        {
          "internalType": "uint256",
          "name": "",
          "type": "uint256"
        }
      ],
      "name": "candidates",
      "outputs": [
        {
          "internalType": "string",
          "name": "name",
          "type": "string"
        },
        {
          "internalType": "uint256",
          "name": "votes",
          "type": "uint256"
        }
      ],
      "stateMutability": "view",
      "type": "function"
    },
    {
      "inputs": [],
      "name": "getRemainingTime",
      "outputs": [
        {
          "internalType": "uint256",
          "name": "",
          "type": "uint256"
        }
      ],
      "stateMutability": "view",
      "type": "function"
    },
    {
      "inputs": [],
      "name": "getVotingStatus",
      "outputs": [
        {
          "internalType": "bool",
          "name": "",
          "type": "bool"
        }
      ],
      "stateMutability": "view",
      "type": "function"
    },
    {
      "inputs": [],
      "name": "results",
      "outputs": [
        {
          "components": [
            {
              "internalType": "string",
              "name": "name",
              "type": "string"
            },
            {
              "internalType": "uint256",
              "name": "votes",
              "type": "uint256"
            }
          ],
          "internalType": "struct Voting.Candidate[]",
          "name": "",
          "type": "tuple[]"
        }
      ],
      "stateMutability": "view",
      "type": "function"
    },
    {
      "inputs": [
        {
          "internalType": "uint256",
          "name": "_id",
          "type": "uint256"
        }
      ],
      "name": "vote",
      "outputs": [],
      "stateMutability": "nonpayable",
      "type": "function"
    },
    {
      "inputs": [
        {
          "internalType": "address",
          "name": "",
          "type": "address"
        }
      ],
      "name": "voters",
      "outputs": [
        {
          "internalType": "bool",
          "name": "",
          "type": "bool"
        }
      ],
      "stateMutability": "view",
      "type": "function"
    },
    {
      "inputs": [],
      "name": "votingEnd",
      "outputs": [
        {
          "internalType": "uint256",
          "name": "",
          "type": "uint256"
        }
      ],
      "stateMutability": "view",
      "type": "function"
    },
    {
      "inputs": [],
      "name": "votingStart",
      "outputs": [
        {
          "internalType": "uint256",
          "name": "",
          "type": "uint256"
        }
      ],
      "stateMutability": "view",
      "type": "function"
    }
  ],
  "bytecode": "0x60806040523480156200001157600080fd5b506040516200197e3803806200197e833981810160405281019062000037919062000419565b60005b8251811015620000dc57600060405180604001604052808584815181106200006757620000666200047f565b5b60200260200101518152602001600081525090806001815401808255809150506001900390600052602060002090600202016000909190919091506000820151816000019081620000b99190620006ef565b506020820151816001015550508080620000d39062000805565b9150506200003a565b5033600260006101000a81548173ffffffffffffffffffffffffffffffffffffffff021916908373ffffffffffffffffffffffffffffffffffffffff16021790555042600381905550603c8162000134919062000852565b426200014191906200089d565b6004819055505050620008d8565b6000604051905090565b600080fd5b600080fd5b600080fd5b6000601f19601f8301169050919050565b7f4e487b7100000000000000000000000000000000000000000000000000000000600052604160045260246000fd5b620001b38262000168565b810181811067ffffffffffffffff82111715620001d557620001d462000179565b5b80604052505050565b6000620001ea6200014f565b9050620001f88282620001a8565b919050565b600067ffffffffffffffff8211156200021b576200021a62000179565b5b602082029050602081019050919050565b600080fd5b600080fd5b600067ffffffffffffffff82111562000254576200025362000179565b5b6200025f8262000168565b9050602081019050919050565b60005b838110156200028c5780820151818401526020810190506200026f565b60008484015250505050565b6000620002af620002a98462000236565b620001de565b905082815260208101848484011115620002ce57620002cd62000231565b5b620002db8482856200026c565b509392505050565b600082601f830112620002fb57620002fa62000163565b5b81516200030d84826020860162000298565b91505092915050565b60006200032d6200032784620001fd565b620001de565b905080838252602082019050602084028301858111156200035357620003526200022c565b5b835b81811015620003a157805167ffffffffffffffff8111156200037c576200037b62000163565b5b8086016200038b8982620002e3565b8552602085019450505060208101905062000355565b5050509392505050565b600082601f830112620003c357620003c262000163565b5b8151620003d584826020860162000316565b91505092915050565b6000819050919050565b620003f381620003de565b8114620003ff57600080fd5b50565b6000815190506200041381620003e8565b92915050565b6000806040838503121562000433576200043262000159565b5b600083015167ffffffffffffffff8111156200045457620004536200015e565b5b6200046285828601620003ab565b9250506020620004758582860162000402565b9150509250929050565b7f4e487b7100000000000000000000000000000000000000000000000000000000600052603260045260246000fd5b600081519050919050565b7f4e487b7100000000000000000000000000000000000000000000000000000000600052602260045260246000fd5b600060028204905060018216806200050157607f821691505b602082108103620005175762000516620004b9565b5b50919050565b60008190508160005260206000209050919050565b60006020601f8301049050919050565b600082821b905092915050565b600060088302620005817fffffffffffffffffffffffffffffffffffffffffffffffffffffffffffffffff8262000542565b6200058d868362000542565b95508019841693508086168417925050509392505050565b6000819050919050565b6000620005d0620005ca620005c484620003de565b620005a5565b620003de565b9050919050565b6000819050919050565b620005ec83620005af565b62000604620005fb82620005d7565b8484546200054f565b825550505050565b600090565b6200061b6200060c565b62000628818484620005e1565b505050565b5b8181101562000650576200064460008262000611565b6001810190506200062e565b5050565b601f8211156200069f5762000669816200051d565b620006748462000532565b8101602085101562000684578190505b6200069c620006938562000532565b8301826200062d565b50505b505050565b600082821c905092915050565b6000620006c460001984600802620006a4565b1980831691505092915050565b6000620006df8383620006b1565b9150826002028217905092915050565b620006fa82620004ae565b67ffffffffffffffff81111562000716576200071562000179565b5b620007228254620004e8565b6200072f82828562000654565b600060209050601f83116001811462000767576000841562000752578287015190505b6200075e8582620006d1565b865550620007ce565b601f19841662000777866200051d565b60005b82811015620007a1578489015182556001820191506020850194506020810190506200077a565b86831015620007c15784890151620007bd601f891682620006b1565b8355505b6001600288020188555050505b505050505050565b7f4e487b7100000000000000000000000000000000000000000000000000000000600052601160045260246000fd5b60006200081282620003de565b91507fffffffffffffffffffffffffffffffffffffffffffffffffffffffffffffffff8203620008475762000846620007d6565b5b600182019050919050565b60006200085f82620003de565b91506200086c83620003de565b92508282026200087c81620003de565b91508282048414831517620008965762000895620007d6565b5b5092915050565b6000620008aa82620003de565b9150620008b783620003de565b9250828201905080821115620008d257620008d1620007d6565b5b92915050565b61109680620008e86000396000f3fe608060405234801561001057600080fd5b50600436106100935760003560e01c8063581c281c11610066578063581c281c1461011f57806385a386351461013d578063a3ec138d1461015b578063a48bdb7c1461018b578063efb98bcf146101a957610093565b80630121b93f14610098578063101158af146100b45780633477ee2e146100d2578063462e91ec14610103575b600080fd5b6100b260048036038101906100ad9190610694565b6101c7565b005b6100bc610330565b6040516100c991906106d0565b60405180910390f35b6100ec60048036038101906100e79190610694565b610336565b6040516100fa92919061077b565b60405180910390f35b61011d600480360381019061011891906108e0565b6103f2565b005b6101276104b2565b6040516101349190610944565b60405180910390f35b6101456104cd565b60405161015291906106d0565b60405180910390f35b610175600480360381019061017091906109bd565b6104d3565b6040516101829190610944565b60405180910390f35b6101936104f3565b6040516101a09190610b42565b60405180910390f35b6101b16105ee565b6040516101be91906106d0565b60405180910390f35b600160003373ffffffffffffffffffffffffffffffffffffffff1673ffffffffffffffffffffffffffffffffffffffff16815260200190815260200160002060009054906101000a900460ff1615610254576040517f08c379a000000000000000000000000000000000000000000000000000000000815260040161024b90610bb0565b60405180910390fd5b600080549050811061029b576040517f08c379a000000000000000000000000000000000000000000000000000000000815260040161029290610c1c565b60405180910390fd5b600081815481106102af576102ae610c3c565b5b906000526020600020906002020160010160008154809291906102d190610c9a565b919050555060018060003373ffffffffffffffffffffffffffffffffffffffff1673ffffffffffffffffffffffffffffffffffffffff16815260200190815260200160002060006101000a81548160ff02191690831515021790555050565b60035481565b6000818154811061034657600080fd5b906000526020600020906002020160009150905080600001805461036990610d11565b80601f016020809104026020016040519081016040528092919081815260200182805461039590610d11565b80156103e25780601f106103b7576101008083540402835291602001916103e2565b820191906000526020600020905b8154815290600101906020018083116103c557829003601f168201915b5050505050908060010154905082565b600260009054906101000a900473ffffffffffffffffffffffffffffffffffffffff1673ffffffffffffffffffffffffffffffffffffffff163373ffffffffffffffffffffffffffffffffffffffff161461044c57600080fd5b600060405180604001604052808381526020016000815250908060018154018082558091505060019003906000526020600020906002020160009091909190915060008201518160000190816104a29190610eee565b5060208201518160010155505050565b600060035442101580156104c857506004544211155b905090565b60045481565b60016020528060005260406000206000915054906101000a900460ff1681565b60606000805480602002602001604051908101604052809291908181526020016000905b828210156105e5578382906000526020600020906002020160405180604001604052908160008201805461054a90610d11565b80601f016020809104026020016040519081016040528092919081815260200182805461057690610d11565b80156105c35780601f10610598576101008083540402835291602001916105c3565b820191906000526020600020905b8154815290600101906020018083116105a657829003601f168201915b5050505050815260200160018201548152505081526020019060010190610517565b50505050905090565b60006105f86104b2565b610637576040517f08c379a000000000000000000000000000000000000000000000000000000000815260040161062e9061100c565b60405180910390fd5b42600454610645919061102c565b905090565b6000604051905090565b600080fd5b600080fd5b6000819050919050565b6106718161065e565b811461067c57600080fd5b50565b60008135905061068e81610668565b92915050565b6000602082840312156106aa576106a9610654565b5b60006106b88482850161067f565b91505092915050565b6106ca8161065e565b82525050565b60006020820190506106e560008301846106c1565b92915050565b600081519050919050565b600082825260208201905092915050565b60005b8381101561072557808201518184015260208101905061070a565b60008484015250505050565b6000601f19601f8301169050919050565b600061074d826106eb565b61075781856106f6565b9350610767818560208601610707565b61077081610731565b840191505092915050565b600060408201905081810360008301526107958185610742565b90506107a460208301846106c1565b9392505050565b600080fd5b600080fd5b7f4e487b7100000000000000000000000000000000000000000000000000000000600052604160045260246000fd5b6107ed82610731565b810181811067ffffffffffffffff8211171561080c5761080b6107b5565b5b80604052505050565b600061081f61064a565b905061082b82826107e4565b919050565b600067ffffffffffffffff82111561084b5761084a6107b5565b5b61085482610731565b9050602081019050919050565b82818337600083830152505050565b600061088361087e84610830565b610815565b90508281526020810184848401111561089f5761089e6107b0565b5b6108aa848285610861565b509392505050565b600082601f8301126108c7576108c66107ab565b5b81356108d7848260208601610870565b91505092915050565b6000602082840312156108f6576108f5610654565b5b600082013567ffffffffffffffff81111561091457610913610659565b5b610920848285016108b2565b91505092915050565b60008115159050919050565b61093e81610929565b82525050565b60006020820190506109596000830184610935565b92915050565b600073ffffffffffffffffffffffffffffffffffffffff82169050919050565b600061098a8261095f565b9050919050565b61099a8161097f565b81146109a557600080fd5b50565b6000813590506109b781610991565b92915050565b6000602082840312156109d3576109d2610654565b5b60006109e1848285016109a8565b91505092915050565b600081519050919050565b600082825260208201905092915050565b6000819050602082019050919050565b600082825260208201905092915050565b6000610a32826106eb565b610a3c8185610a16565b9350610a4c818560208601610707565b610a5581610731565b840191505092915050565b610a698161065e565b82525050565b60006040830160008301518482036000860152610a8c8282610a27565b9150506020830151610aa16020860182610a60565b508091505092915050565b6000610ab88383610a6f565b905092915050565b6000602082019050919050565b6000610ad8826109ea565b610ae281856109f5565b935083602082028501610af485610a06565b8060005b85811015610b305784840389528151610b118582610aac565b9450610b1c83610ac0565b925060208a01995050600181019050610af8565b50829750879550505050505092915050565b60006020820190508181036000830152610b5c8184610acd565b905092915050565b7f596f75206861766520616c72656164792063617374656420766f746500000000600082015250565b6000610b9a601c836106f6565b9150610ba582610b64565b602082019050919050565b60006020820190508181036000830152610bc981610b8d565b9050919050565b7f496e76616c69642063616e646964617465206964000000000000000000000000600082015250565b6000610c066014836106f6565b9150610c1182610bd0565b602082019050919050565b60006020820190508181036000830152610c3581610bf9565b9050919050565b7f4e487b7100000000000000000000000000000000000000000000000000000000600052603260045260246000fd5b7f4e487b7100000000000000000000000000000000000000000000000000000000600052601160045260246000fd5b6000610ca58261065e565b91507fffffffffffffffffffffffffffffffffffffffffffffffffffffffffffffffff8203610cd757610cd6610c6b565b5b600182019050919050565b7f4e487b7100000000000000000000000000000000000000000000000000000000600052602260045260246000fd5b60006002820490506001821680610d2957607f821691505b602082108103610d3c57610d3b610ce2565b5b50919050565b60008190508160005260206000209050919050565b60006020601f8301049050919050565b600082821b905092915050565b600060088302610da47fffffffffffffffffffffffffffffffffffffffffffffffffffffffffffffffff82610d67565b610dae8683610d67565b95508019841693508086168417925050509392505050565b6000819050919050565b6000610deb610de6610de18461065e565b610dc6565b61065e565b9050919050565b6000819050919050565b610e0583610dd0565b610e19610e1182610df2565b848454610d74565b825550505050565b600090565b610e2e610e21565b610e39818484610dfc565b505050565b5b81811015610e5d57610e52600082610e26565b600181019050610e3f565b5050565b601f821115610ea257610e7381610d42565b610e7c84610d57565b81016020851015610e8b578190505b610e9f610e9785610d57565b830182610e3e565b50505b505050565b600082821c905092915050565b6000610ec560001984600802610ea7565b1980831691505092915050565b6000610ede8383610eb4565b9150826002028217905092915050565b610ef7826106eb565b67ffffffffffffffff811115610f1057610f0f6107b5565b5b610f1a8254610d11565b610f25828285610e61565b600060209050601f831160018114610f585760008415610f46578287015190505b610f508582610ed2565b865550610fb8565b601f198416610f6686610d42565b60005b82811015610f8e57848901518255600182019150602085019450602081019050610f69565b86831015610fab5784890151610fa7601f891682610eb4565b8355505b6001600288020188555050505b505050505050565b7f566f74696e672069732064697361626c65640000000000000000000000000000600082015250565b6000610ff66012836106f6565b915061100182610fc0565b602082019050919050565b6000602082019050818103600083015261102581610fe9565b9050919050565b60006110378261065e565b91506110428361065e565b925082820390508181111561105a57611059610c6b565b5b9291505056fea26469706673582212207e0ad5cdf920ff94023118a2391effbf7d82b138c0ff7e482587723a22ce210764736f6c63430008120033",
  "linkReferences": {},
  "deployedLinkReferences": {}
}