{
  "_format": "hh-sol-artifact-1",
  "contractName": "Voting",
  "sourceName": "contracts/Voting.sol",
  "abi": [
    {
      "inputs": [
        {
          "internalType": "string[]",
          "name": "_candidateNames",
          "type": "string[]"
        },
        {
          "internalType": "uint256",
          "name": "_durationInMinutes",
          "type": "uint256"
        }
      ],
      "stateMutability": "nonpayable",
      "type": "constructor"
    },
    {
      "inputs": [
        {
          "internalType": "address",
          "name": "owner",
          "type": "address"
        }
      ],
      "name": "OwnableInvalidOwner",
      "type": "error"
    },
    {
      "inputs": [
        {
          "internalType": "address",
          "name": "account",
          "type": "address"
        }
      ],
      "name": "OwnableUnauthorizedAccount",
      "type": "error"
    },
    {
      "anonymous": false,
      "inputs": [
        {
          "indexed": true,
          "internalType": "address",
          "name": "previousOwner",
          "type": "address"
        },
        {
          "indexed": true,
          "internalType": "address",
          "name": "newOwner",
          "type": "address"
        }
      ],
      "name": "OwnershipTransferred",
      "type": "event"
    },
    {
      "inputs": [
        {
          "internalType": "string",
          "name": "_name",
          "type": "string"
        }
      ],
      "name": "addCandidate",
      "outputs": [],
      "stateMutability": "nonpayable",
      "type": "function"
    },
    {
      "inputs": [
        {
          "internalType": "uint256",
          "name": "",
          "type": "uint256"
        }
      ],
      "name": "candidates",
      "outputs": [
        {
          "internalType": "string",
          "name": "name",
          "type": "string"
        },
        {
          "internalType": "uint256",
          "name": "votes",
          "type": "uint256"
        }
      ],
      "stateMutability": "view",
      "type": "function"
    },
    {
      "inputs": [],
      "name": "getRemainingTime",
      "outputs": [
        {
          "internalType": "uint256",
          "name": "",
          "type": "uint256"
        }
      ],
      "stateMutability": "view",
      "type": "function"
    },
    {
      "inputs": [],
      "name": "getVotingStatus",
      "outputs": [
        {
          "internalType": "bool",
          "name": "",
          "type": "bool"
        }
      ],
      "stateMutability": "view",
      "type": "function"
    },
    {
      "inputs": [
        {
          "internalType": "string[]",
          "name": "_candidateNames",
          "type": "string[]"
        },
        {
          "internalType": "uint256",
          "name": "_durationInMinutes",
          "type": "uint256"
        }
      ],
      "name": "initVoting",
      "outputs": [],
      "stateMutability": "nonpayable",
      "type": "function"
    },
    {
      "inputs": [],
      "name": "owner",
      "outputs": [
        {
          "internalType": "address",
          "name": "",
          "type": "address"
        }
      ],
      "stateMutability": "view",
      "type": "function"
    },
    {
      "inputs": [],
      "name": "renounceOwnership",
      "outputs": [],
      "stateMutability": "nonpayable",
      "type": "function"
    },
    {
      "inputs": [],
      "name": "results",
      "outputs": [
        {
          "components": [
            {
              "internalType": "string",
              "name": "name",
              "type": "string"
            },
            {
              "internalType": "uint256",
              "name": "votes",
              "type": "uint256"
            }
          ],
          "internalType": "struct Voting.Candidate[]",
          "name": "",
          "type": "tuple[]"
        }
      ],
      "stateMutability": "view",
      "type": "function"
    },
    {
      "inputs": [
        {
          "internalType": "address",
          "name": "newOwner",
          "type": "address"
        }
      ],
      "name": "transferOwnership",
      "outputs": [],
      "stateMutability": "nonpayable",
      "type": "function"
    },
    {
      "inputs": [
        {
          "internalType": "uint256",
          "name": "_id",
          "type": "uint256"
        }
      ],
      "name": "vote",
      "outputs": [],
      "stateMutability": "nonpayable",
      "type": "function"
    },
    {
      "inputs": [
        {
          "internalType": "address",
          "name": "",
          "type": "address"
        }
      ],
      "name": "voters",
      "outputs": [
        {
          "internalType": "bool",
          "name": "",
          "type": "bool"
        }
      ],
      "stateMutability": "view",
      "type": "function"
    },
    {
      "inputs": [],
      "name": "votingEnd",
      "outputs": [
        {
          "internalType": "uint256",
          "name": "",
          "type": "uint256"
        }
      ],
      "stateMutability": "view",
      "type": "function"
    },
    {
      "inputs": [],
      "name": "votingStart",
      "outputs": [
        {
          "internalType": "uint256",
          "name": "",
          "type": "uint256"
        }
      ],
      "stateMutability": "view",
      "type": "function"
    }
  ],
  "bytecode": "0x60806040523480156200001157600080fd5b5060405162001228380380620012288339810160408190526200003491620001b6565b33806200005b57604051631e4fbdf760e01b81526000600482015260240160405180910390fd5b62000066816200011d565b5060005b8251811015620000f3576001604051806040016040528085848151811062000096576200009662000301565b60209081029190910181015182526000918101829052835460018101855593825290208151919260020201908190620000d09082620003a6565b506020820151816001015550508080620000ea9062000488565b9150506200006a565b50426003556200010581603c620004a4565b620001119042620004c4565b60045550620004da9050565b600080546001600160a01b038381166001600160a01b0319831681178455604051919092169283917f8be0079c531659141344cd1fd0a4f28419497f9722a3daafe3b4186f6b6457e09190a35050565b634e487b7160e01b600052604160045260246000fd5b604051601f8201601f191681016001600160401b0381118282101715620001ae57620001ae6200016d565b604052919050565b6000806040808486031215620001cb57600080fd5b83516001600160401b0380821115620001e357600080fd5b8186019150601f8781840112620001f957600080fd5b82516020838211156200021057620002106200016d565b8160051b6200022182820162000183565b928352858101820192828101908c8511156200023c57600080fd5b83880192505b84831015620002ec578251878111156200025c5760008081fd5b8801603f81018e136200026f5760008081fd5b84810151888111156200028657620002866200016d565b62000299818901601f1916870162000183565b8181528f8c838501011115620002af5760008081fd5b60005b82811015620002cf578381018d01518282018901528701620002b2565b506000918101870191909152835250918301919083019062000242565b9a90920151999b999a50505050505050505050565b634e487b7160e01b600052603260045260246000fd5b600181811c908216806200032c57607f821691505b6020821081036200034d57634e487b7160e01b600052602260045260246000fd5b50919050565b601f821115620003a157600081815260208120601f850160051c810160208610156200037c5750805b601f850160051c820191505b818110156200039d5782815560010162000388565b5050505b505050565b81516001600160401b03811115620003c257620003c26200016d565b620003da81620003d3845462000317565b8462000353565b602080601f831160018114620004125760008415620003f95750858301515b600019600386901b1c1916600185901b1785556200039d565b600085815260208120601f198616915b82811015620004435788860151825594840194600190910190840162000422565b5085821015620004625787850151600019600388901b60f8161c191681555b5050505050600190811b01905550565b634e487b7160e01b600052601160045260246000fd5b6000600182016200049d576200049d62000472565b5060010190565b8082028115828204841417620004be57620004be62000472565b92915050565b80820180821115620004be57620004be62000472565b610d3e80620004ea6000396000f3fe608060405234801561001057600080fd5b50600436106100cf5760003560e01c806385a386351161008c578063a48bdb7c11610066578063a48bdb7c146101a0578063accb05bd146101b5578063efb98bcf146101c8578063f2fde38b146101d057600080fd5b806385a38635146101595780638da5cb5b14610162578063a3ec138d1461017d57600080fd5b80630121b93f146100d4578063101158af146100e95780633477ee2e14610105578063462e91ec14610126578063581c281c14610139578063715018a614610151575b600080fd5b6100e76100e2366004610853565b6101e3565b005b6100f260035481565b6040519081526020015b60405180910390f35b610118610113366004610853565b6102e3565b6040516100fc9291906108b2565b6100e761013436600461098b565b61039f565b61014161045a565b60405190151581526020016100fc565b6100e7610474565b6100f260045481565b6000546040516001600160a01b0390911681526020016100fc565b61014161018b3660046109c8565b60026020526000908152604090205460ff1681565b6101a8610488565b6040516100fc91906109f8565b6100e76101c3366004610a6e565b610583565b6100f26106a2565b6100e76101de3660046109c8565b610709565b3360009081526002602052604090205460ff16156102485760405162461bcd60e51b815260206004820152601c60248201527f596f75206861766520616c72656164792063617374656420766f74650000000060448201526064015b60405180910390fd5b60015481106102905760405162461bcd60e51b8152602060048201526014602482015273125b9d985b1a590818d85b991a59185d19481a5960621b604482015260640161023f565b600181815481106102a3576102a3610b37565b6000918252602082206001600290920201018054916102c183610b63565b9091555050336000908152600260205260409020805460ff1916600117905550565b600181815481106102f357600080fd5b906000526020600020906002020160009150905080600001805461031690610b7c565b80601f016020809104026020016040519081016040528092919081815260200182805461034290610b7c565b801561038f5780601f106103645761010080835404028352916020019161038f565b820191906000526020600020905b81548152906001019060200180831161037257829003601f168201915b5050505050908060010154905082565b6103a7610747565b6103af61045a565b6103f35760405162461bcd60e51b81526020600482015260156024820152741d9bdd1a5b99c81b9bdd081a5b9d1a585b1a5e9959605a1b604482015260640161023f565b604080518082019091528181526000602082018190526001805480820182559152815160029091027fb10e2d527612073b26eecdfd717e6a320cf44b4afac2b0732d9fcbe2b7fa0cf60190819061044a9082610c05565b5060208201518160010155505050565b6000600354421015801561046f575060045442105b905090565b61047c610747565b6104866000610774565b565b60606001805480602002602001604051908101604052809291908181526020016000905b8282101561057a57838290600052602060002090600202016040518060400160405290816000820180546104df90610b7c565b80601f016020809104026020016040519081016040528092919081815260200182805461050b90610b7c565b80156105585780601f1061052d57610100808354040283529160200191610558565b820191906000526020600020905b81548152906001019060200180831161053b57829003601f168201915b50505050508152602001600182015481525050815260200190600101906104ac565b50505050905090565b61058b610747565b61059361045a565b156105ea5760405162461bcd60e51b815260206004820152602160248201527f50726576696f757320766f74696e6720686173206e6f742079657420656e64656044820152601960fa1b606482015260840161023f565b600154156105fe576105fe600160006107c4565b60005b8251811015610681576001604051806040016040528085848151811061062957610629610b37565b602090810291909101810151825260009181018290528354600181018555938252902081519192600202019081906106619082610c05565b50602082015181600101555050808061067990610b63565b915050610601565b504260035561069181603c610cc5565b61069b9042610ce2565b6004555050565b60006106ac61045a565b6106ec5760405162461bcd60e51b8152602060048201526011602482015270566f74696e67206e6f742061637469766560781b604482015260640161023f565b60045442106106fb5750600090565b4260045461046f9190610cf5565b610711610747565b6001600160a01b03811661073b57604051631e4fbdf760e01b81526000600482015260240161023f565b61074481610774565b50565b6000546001600160a01b031633146104865760405163118cdaa760e01b815233600482015260240161023f565b600080546001600160a01b038381166001600160a01b0319831681178455604051919092169283917f8be0079c531659141344cd1fd0a4f28419497f9722a3daafe3b4186f6b6457e09190a35050565b508054600082556002029060005260206000209081019061074491905b808211156108055760006107f58282610809565b50600060018201556002016107e1565b5090565b50805461081590610b7c565b6000825580601f10610825575050565b601f01602090049060005260206000209081019061074491905b80821115610805576000815560010161083f565b60006020828403121561086557600080fd5b5035919050565b6000815180845260005b8181101561089257602081850181015186830182015201610876565b506000602082860101526020601f19601f83011685010191505092915050565b6040815260006108c5604083018561086c565b90508260208301529392505050565b634e487b7160e01b600052604160045260246000fd5b604051601f8201601f1916810167ffffffffffffffff81118282101715610913576109136108d4565b604052919050565b600082601f83011261092c57600080fd5b813567ffffffffffffffff811115610946576109466108d4565b610959601f8201601f19166020016108ea565b81815284602083860101111561096e57600080fd5b816020850160208301376000918101602001919091529392505050565b60006020828403121561099d57600080fd5b813567ffffffffffffffff8111156109b457600080fd5b6109c08482850161091b565b949350505050565b6000602082840312156109da57600080fd5b81356001600160a01b03811681146109f157600080fd5b9392505050565b60006020808301818452808551808352604092508286019150828160051b87010184880160005b83811015610a6057888303603f1901855281518051878552610a438886018261086c565b918901519489019490945294870194925090860190600101610a1f565b509098975050505050505050565b60008060408385031215610a8157600080fd5b823567ffffffffffffffff80821115610a9957600080fd5b818501915085601f830112610aad57600080fd5b8135602082821115610ac157610ac16108d4565b8160051b610ad08282016108ea565b928352848101820192828101908a851115610aea57600080fd5b83870192505b84831015610b2657823586811115610b085760008081fd5b610b168c86838b010161091b565b8352509183019190830190610af0565b9a9890920135985050505050505050565b634e487b7160e01b600052603260045260246000fd5b634e487b7160e01b600052601160045260246000fd5b600060018201610b7557610b75610b4d565b5060010190565b600181811c90821680610b9057607f821691505b602082108103610bb057634e487b7160e01b600052602260045260246000fd5b50919050565b601f821115610c0057600081815260208120601f850160051c81016020861015610bdd5750805b601f850160051c820191505b81811015610bfc57828155600101610be9565b5050505b505050565b815167ffffffffffffffff811115610c1f57610c1f6108d4565b610c3381610c2d8454610b7c565b84610bb6565b602080601f831160018114610c685760008415610c505750858301515b600019600386901b1c1916600185901b178555610bfc565b600085815260208120601f198616915b82811015610c9757888601518255948401946001909101908401610c78565b5085821015610cb55787850151600019600388901b60f8161c191681555b5050505050600190811b01905550565b8082028115828204841417610cdc57610cdc610b4d565b92915050565b80820180821115610cdc57610cdc610b4d565b81810381811115610cdc57610cdc610b4d56fea264697066735822122050db67839bbea1d4936f0a6004c048709761d31debb9b0a9506079c2d41ee22164736f6c63430008150033",
  "linkReferences": {},
  "deployedLinkReferences": {}
}